:100000000C949D080C94C5080C94C5080C94C50864
:100010000C94C5080C94C5080C94C5080C94C5082C
:100020000C94C5080C94C5080C94FD0A0C946F0B35
:100030000C94C5080C94C5080C94C5080C94C5080C
:100040000C94C5080C94C5080C94C5080C94C508FC
:100050000C94C5080C94C5080C94C5080C94830E28
:100060000C94C5080C94C5080C94C5080C94C508DC
:100070000C94C5080C94C5080C94C5080C94C508CC
:100080000C94CD0E0C94C5080C94C5080C94C508AE
:100090000C94C5080C94C5080C94C5080C94C508AC
:1000A0000C94C5080C94C5080C94C50805A84CCD43
:1000B000B2D44EB93836A9020C50B9918688083CA2
:1000C000A6AAAA2ABE000000803FF0F89C8E878373
:1000D000878E9CF8F00000FEFF0303030303070E66
:1000E000FCF80000FEFF0303030303070EFCF80007
:1000F00000FFFF00000000000000FFFF0000FEFF07
:100100008383838383C7EE7C380000F8FC0E0703EB
:100110000303070EFCF800003F7FE0C08080C0E0D2
:100120007F3FFFFF01010101010101FFFF0000FF0F
:10013000FF0C0C0C0C1C3E77E3C100007FFFC0C01D
:10014000C0C0C0E0703F1F00001F3F70E0C0C0C0D3
:10015000E0703F1F00007FFFC1C1C1C1C1E3773E16
:100160001C00001F3F70E0C0C0C0E0703F1F0000D7
:1001700000000001FFFF01000000D5F08D14A1C8B0
:1001800081CFD9F1AF2000E402F20100009000E439
:1001900002220000004800E402220000004800E4BF
:1001A00002B10000006C00E402690000002400E4D9
:1001B000024600000048003F03690000002400A43C
:1001C00003690000002400DC030A040000FB00DCDB
:1001D000036900000024005504460000004800DDCB
:1001E0000446000000480075055D0200002400750B
:1001F0000522000000480075052200000048007537
:100200000522000000B3005504B100000024007571
:1002100005460000004800C8057500000018007D74
:1002200006690000002400C80569060080550469BD
:100230000200000D005504690000000D005504691E
:1002400000000001001704AB01000001001704D5F5
:1002500000000001001704D50000000100DC03814C
:100260000200000100DC03D50000000100A4031C13
:100270000100000100A403460000006C00A403225A
:100280000000006C00A403220000006C00A4032204
:10029000000000480070031C0100000100E4021C83
:1002A000010000010070031C01000001003F031C5D
:1002B000010000010093021C01000001003F031C2B
:1002C0000100000100E4028102000001006E02460C
:1002D00000000001000B024600000001006E024613
:1002E00000000001002A027B030080AF0032000002
:1002F000000F00C40032000080B8070A0055040A4D
:10030000000080EE010F0055040500008000000091
:10031000008040402020A0E060C0C080800000003D
:100320000000001C2340787E7F6F7F7B7F5F7F5DB6
:10033000777F7E3800000000000000000000000011
:10034000000000000000000000000000482424E439
:10035000FC2424E2E2E26230180E300000000001CA
:100360000B0B0F0B0905050705040000000000003A
:10037000000000000000000000000000000000007D
:100380000000000000000000000000C060E060C04D
:100390000000000000000000000000E5353F35E5EA
:1003A00000000000005D011400008080400000009B
:1003B000000000000000000000000000000000003D
:1003C000000000000000000000000000000000002D
:1003D000000000000000000000000000000000001D
:1003E000000000000000000000000000000000000D
:1003F00000000000000000000000000000000000FD
:1004000000000000000000000000000000000000EC
:1004100000000000000000000000000000000000DC
:1004200000000000000000000000000000FF7F3E10
:100430001818F81E1F3F7EF8F8F83E1F070100004D
:1004400000000000000000000000000000000000AC
:10045000000000000000000000000000000000009C
:10046000000000000000000000000000000000008C
:10047000000000000000000000000000000000007C
:10048000000000000000000000000000000000006C
:10049000000000000000000000000000000000005C
:1004A0000000000000000000000000000004FC0448
:1004B000040407040404FC040FFFF08080800000A3
:1004C000000000000000000000000000000000002C
:1004D000000000000000000000000000000000001C
:1004E000000000000000000000000000000000000C
:1004F00000000000000000000000000000000000FC
:1005000000000000000000000000000000000000EB
:1005100000000000000000000000000000000000DB
:100520000000000000000000000000000059C94960
:1005300049497F515159C94949FFFFA2A2FF633E72
:1005400000000000000000000000000000000000AB
:10055000000000000000000000000000000000009B
:10056000000000000000000000000000000000008B
:10057000000000000000000000000000000000007B
:10058000000000000000000000000000000000006B
:10059000000000000000000000000000000000005B
:1005A00000000000000000000000000000101F100C
:1005B0001010F01010101F10101FFFFC00000000A2
:1005C000000000000000000000000000000000002B
:1005D000000000000000000000000000000000001B
:1005E000000000000000000000000000000000000B
:1005F00000000000000000000000000000000000FB
:1006000000000000000000000000000000000000EA
:1006100000000000000000000000000000000000DA
:100620000000000000000000000000000004FC04C6
:10063000040407040404FC0404040507070E1CFC5E
:10064000F8C00000000000000000000000000000F2
:10065000000000000000000000000000000000009A
:10066000000000000000000000000000000000008A
:10067000000000000000000000000000000000007A
:10068000000000000000000000000000000000006A
:10069000000000000000000000000000000000005A
:1006A000000000000000000000000000000C0F4CE3
:1006B0008C0C0C0C0C0C0F0C0C8C8C0C4C0C0E0FB2
:1006C0004F0F08080848484808080808080808881C
:1006D000484848480808080808C8080808080808DA
:1006E00008080808080808080808C888480808080A
:1006F00008084848484848480808080808080808FA
:100700000808084848280808080808880808080849
:100710000808C808080808080848080808080888D9
:1007200088080808080808080808080808000008D9
:10073000180002030000000C0800202160000004E3
:1007400003040400402000000E08060022600000A0
:1007500002010000006020460809000000000800B7
:100760000E004000300C4000000200020010202863
:1007700000010404000001105000050400001C30BA
:100780000000E000030000001010202040408084A2
:100790000404007000030600600009010101000468
:1007A000012100000034000000202406001704325C
:1007B00000000064000B021E000080FFFFFFFFFF2F
:1007C000FFFFFFFFFFFFFFFFFF3F1F0F8FC7C7E7C1
:1007D000E7E7E7E7E7E7E7E7E7E7E7E7E7E3F3F395
:1007E000F3F3F3F3F3F3F3F3F3F3F3F3F3F3F3F1DB
:1007F000F1F1E1C3878F9F9F9F9F9F9F9F9F9F9F27
:100800008F87C3E1F1F1F1F3F3F3F3F3F3F3F3F3D0
:10081000F3F3F3F3F3F3F3F3E3E7E7E7E7E7E7E70C
:10082000E7E7E7E7E7E7E7C7C78F0F1F3FFFFFFFF0
:10083000FFFFFFFFFFFFFFFFFFFFFFFFFFFFFFFFC8
:10084000FFFFFFFFFFFF7F1F0380F8FFFFFFFFFF9A
:10085000FFFFFFFFFFFFFFFFFFFFFFFFFFFFFFFFA8
:10086000FFFFFFFFFF03070F1F3F3F030303033F8C
:100870003F3F030303033F3F3F030303033F3F3F68
:10088000030303033F3F3F030303033F3F1F0F07E0
:1008900003FFFFFFFFFFFFFFFFFFFFFFFFFFFFFF64
:1008A000FFFFFFFFFFFFFFFFFFFFFFF880031F7F3A
:1008B000FFFFFFFFFFFFFFFFFFFFFFFFFFFFFFFF48
:1008C000FFFFFFFF3F0700E0FEFFFFFFFFFFFFFF0F
:1008D000FFFFFFFFFFFFFFFFFFFFFFFFFFFFFFFF28
:1008E000FFFFFFFFFFF0F0E2E20606DCC09E5EC005
:1008F000DCDC1CD0801CC09C9C9C1C1C9C9C9CC058
:10090000DCDCDC1CDCDCC0DEDEDEDE0606E2E2F087
:10091000F0FFFFFFFFFFFFFFFFFFFFFFFFFFFFFFF6
:10092000FFFFFFFFFFFFFFFFFFFFFFFFFFFEE000F6
:10093000073FFFFFFFFFFFFFFFFFFFFFFFFFFFFF7F
:10094000FFFF0700F03CFFFFFFFF3FFFFFFFFFFF40
:10095000FFFFFFFFFFFFFFFFFFFFFFFFFFFFFFFFA7
:10096000FFFFFFFFFFFFFFFFFF00000001F7062171
:10097000C3E7C0B77764E9E7EFCF0000EFEFEFEF31
:10098000E7F7F7F0F7F7F707B701000000FFFFFF01
:10099000FFFF7F3FBFBF3F7FFFFFFFFFFFFFFFFF67
:1009A000FFFFFFFFFFFFFFFFFFFFFFFFFFFFFFFF57
:1009B000FCF00007FFFFFFFFFFFFFF9F9F9F8F8758
:1009C000C7E1E0FCFF00FFFFFFFF00FF7FBFBFBFED
:1009D0007FFF7F3FBF3F7F01FF7FBFBFBF7FFF3FE5
:1009E0007FBFBF7FFFFFFFFFFF00000000A23EBCF4
:1009F000B2AE80BEBEBE3C3C005D00007D3DBDBCD5
:100A000002B8BC80BCBEBE3EA200000000FFFFFFDB
:100A1000FFFF00EFEFEFEF00FFEF01EFFFEF01EF60
:100A2000FF7FBFBFBF7F3FFF7FBFBFFF01FF7FBF14
:100A3000FFFFFCE0E1C7878F9F9F9FFFFFFFFFFF46
:100A4000FFFFFFFFFFFCFBFBFBFBFCFFF8FFFFFFD3
:100A5000F8FFFCF9FBF9FCF8FFFCFAFAFAFAFFF8E8
:100A6000FFFFFFFFFFFFFF7F3F0000F0F6F7F0F70B
:100A7000F7F707F7F7E7EF6F28430000CFCFCFEF87
:100A8000E0F7F707F7F7F7F0F7F6F000003F7FFF22
:100A9000FFFFF8FFFFFFFFF8FFFFF8FFFFFFF8FF82
:100AA000FFFCFBFBFBFCF8FFFCFBFBFFF8FEFDFB88
:100AB000FFFFFFFFFFFFFFFFFFFFFFFF3FDFDF3F06
:100AC000FFFFFFFFFFFFFFFFFFFFFFFFFFFFFFFF36
:100AD0009F7FFF3F9FDF9F3FFF7F9FFFFFFFFFFF46
:100AE000FFFF1F07030100000030B83D9D9D81AD51
:100AF000B58138BD3DBC80BDBCB1A48C1DBDBD81E0
:100B0000BD3DBDBCBDBDBD81BDBD3DB8B08000001B
:100B10000103071FFFFFFFFFFFFFFFFFFFFFFFFFB7
:100B2000FFFFFFFFFFFFFFFFFFFFFFFFFFFFFFFFD5
:100B3000FFFFFFFFFFFFFFFFFFFFFFFF80FDFDFE49
:100B400083F7FBF7FFC7ABFFA7ABDBFFA7ABDBFF71
:100B5000FFFFFF80FBFBFB80FFFFFFFFFFFFFFFFAF
:100B60007F3F00000000C0F0F7F707E0E707F3035E
:100B70007304F6F7F007F7F7F707F7F700F7E7E77B
:100B800007D0D7B70797D7B70727E007F7F7F0C021
:100B9000000000003F7FFFFFFFFFFFFFFFFFFFFFA1
:100BA000FFFFFFFFFFFFFFFFFFFFFFFFFFFFFFFF55
:100BB000FFFFFFFFFFFFFFFFFFFFFF010204081021
:100BC00020408000000000003E5B4F5B3E3E6B4FCC
:100BD0006B3E1C3E7C3E1C183C7E3C181C577D57CF
:100BE0001C1C5E7F5E1C00183C1800FFE7C3E7FF7B
:100BF0000018241800FFE7DBE7FF30483A060E260E
:100C000029792926407F050507407F05253F5A3C65
:100C1000E73C5A7F3E1C1C08081C1C3E7F14227FA8
:100C200022145F5F005F5F06097F017F0066899580
:100C30006A606060606094A2FFA29408047E040869
:100C400010207E201008082A1C08081C2A08081EEC
:100C5000101010100C1E0C1E0C30383E3830060ED2
:100C60003E0E06000000000000005F0000000700CC
:100C70000700147F147F14242A7F2A122313086488
:100C80006236495620500008070300001C2241002C
:100C90000041221C002A1C7F1C2A08083E0808006C
:100CA000807030000808080808000060600020100C
:100CB0000804023E5149453E00427F4000724949C6
:100CC00049462141494D331814127F1027454545A7
:100CD000393C4A49493141211109073649494936C8
:100CE000464949291E00001400000040340000005D
:100CF000081422411414141414004122140802018F
:100D00005909063E415D594E7C1211127C7F4949BA
:100D100049363E414141227F4141413E7F49494957
:100D2000417F090909013E414151737F0808087F4D
:100D300000417F41002040413F017F081422417F54
:100D4000404040407F021C027F7F0408107F3E41EC
:100D500041413E7F090909063E4151215E7F091943
:100D60002946264949493203017F01033F4040405B
:100D70003F1F2040201F3F4038403F63140814634A
:100D800003047804036159494D43007F4141410206
:100D900004081020004141417F0402010204404048
:100DA000404040000307080020545478407F284406
:100DB00044383844444428384444287F38545454F0
:100DC0001800087E090218A4A49C787F08040478FF
:100DD00000447D40002040403D007F10284400003A
:100DE000417F40007C047804787C0804047838440F
:100DF000444438FC1824241818242418FC7C0804C3
:100E00000408485454542404043F44243C404020E3
:100E10007C1C2040201C3C4030403C44281028448E
:100E20004C9090907C4464544C440008364100003F
:100E300000770000004136080002010204023C264F
:100E400023263C1EA1A161123A4040207A38545416
:100E5000555921555579412154547841215554789B
:100E60004020545579400C1E52721239555555592F
:100E7000395454545939555454580000457C410054
:100E800002457D420001457C40F0292429F0F028EC
:100E90002528F07C545545002054547C547C0A0984
:100EA0007F4932494949323248484832324A4848F3
:100EB000303A4141217A3A42402078009DA0A07DFD
:100EC00039444444393D4040403D3C24FF242448BB
:100ED0007E4943662B2FFC2F2BFF0929F620C08863
:100EE0007E090320545479410000447D4130484834
:100EF0004A32384040227A007A0A0A727D0D19314E
:100F00007D2629292F28262929292630484D4020A9
:100F1000380808080808080808382F10C8ACBA2F85
:100F2000102834FA00007B000008142A142222142E
:100F30002A14089500220095AA005500AAAA55AACD
:100F400055AA000000FF00101010FF00141414FF39
:100F5000001010FF00FF1010F010F0141414FC002B
:100F60001414F700FF0000FF00FF1414F404FC1435
:100F70001417101F10101F101F1414141F0010102E
:100F800010F0000000001F101010101F10101010A3
:100F9000F010000000FF101010101010101010FFC3
:100FA00010000000FF140000FF00FF00001F1017DA
:100FB0000000FC04F414141710171414F404F400C3
:100FC00000FF00F714141414141414F700F7141489
:100FD00014171410101F101F141414F4141010F010
:100FE00010F000001F101F0000001F14000000FC84
:100FF000140000F010F01010FF10FF141414FF1470
:101000001010101F00000000F010FFFFFFFFFFF0A6
:10101000F0F0F0F0FFFFFF0000000000FFFF0F0FF7
:101020000F0F0F38444438447C2A2A3E147E0202B3
:101030000606027E027E0263554941633844443C01
:1010400004407E201E2006027E020299A5E7A59993
:101050001C2A492A1C4C7201724C304A4D4D3030CA
:1010600048784830BC625A463D3E494949007E01B5
:1010700001017E2A2A2A2A2A44445F444440514AD4
:10108000444040444A51400000FF0103E080FF001B
:101090000008086B6B083612362436060F090F0657
:1010A000000018180000001010003040FF0101007F
:1010B0001F01011E00191D1712003C3C3C3C0000A2
:1010C000000000080B0002020201000904000001F8
:1010D000020200000524001001052401010104247E
:1010E00002060524060001070581031000400904DB
:1010F0000100020A00000007050202400000070587
:1011000083024000000403090412010002EF0201FF
:101110004041233680000101020301417264756978
:101120006E6F204C4C430041726475696E6F204CA9
:10113000656F6E6172646F00D61A11241FBECFEF07
:10114000DAE0DEBFCDBF11E0A0E0B1E0ECEBFCE304
:1011500002C005900D92A43AB107D9F726E0A4EA9F
:10116000B1E001C01D92AD3DB207E1F718E0CDE955
:10117000D8E004C02197FE010E94511ECC39D1074E
:10118000C9F70E941F130C945C1E0C940000409140
:101190004E0250914F0220914C0230914D02421765
:1011A0005307B4F49091E8009570E1F39091E80052
:1011B00092FD19C08093F10080914E0290914F02F0
:1011C00001968F739927892B19F48EEF8093E8008D
:1011D00080914E0290914F02019690934F0280931E
:1011E0004E0281E0089580E00895DF92EF92FF9231
:1011F0000F931F93CF93DF93D82E8A017B01E40EC8
:10120000F51EEB01CE15DF0571F0D7FE03C0FE0120
:10121000849101C088810E94C70821968111F2CF74
:101220008FEF9FEF01C0C801DF91CF911F910F9108
:10123000FF90EF90DF900895615030F02091F10021
:10124000FC0120830196F8CF289884E68093510210
:101250000895CF92DF92EF92FF920F931F93CF9357
:10126000DF936C017A018B01C0E0D0E0CE15DF0581
:1012700089F0D8016D918D01D601ED91FC9101901D
:10128000F081E02DC6010995892B11F47E0102C081
:101290002196ECCFC701DF91CF911F910F91FF9065
:1012A000EF90DF90CF900895CF93DF931F92CDB74B
:1012B000DEB76983DC01ED91FC910280F381E02DC2
:1012C00041E050E0BE016F5F7F4F09950F90DF91C5
:1012D000CF91089583E08093E9008091F200882304
:1012E00019F08AE38093E8000895FC0184859585D0
:1012F00097FD0BC09FB7F89482E08093E90080913E
:10130000F2009FBF90E0019608959FB7F89482E0A5
:101310008093E9008091F2009FBF90E00895809152
:101320004002E0913E02F0913F02882349F0CF0154
:10133000029690933F0280933E0285919491089586
:10134000CF01029690933F0280933E02808191816B
:101350000895CF92DF92EF92FF920F931F93CF9356
:10136000DF930E948F09811520E8920761F4809134
:1013700071008D7F8093710010929100469847987C
:1013800010923D028BC021E020933D02813020E885
:10139000920751F480913B0290913C0290933F025E
:1013A00080933E020E948F0997FD05C020913A026A
:1013B000222309F43FC02091390221113BC021E0D2
:1013C00020934102EC01DF77209769F481E080935C
:1013D000420246983FE9C32E3FE0D32EE12CF12C88
:1013E000CAEFD0E014C08E0120E030E060E472E487
:1013F0008FE090E0A90198010E948D1B69017A019C
:1014000081E0C81AD108E108F10810924202E09187
:10141000A306F091A4060995811103C081E0809391
:101420004202809141028823B9F1809142028111E8
:1014300033C003C010924102C5CF46992DC0479AD0
:101440000E948F09009771F09C01DE010E94E11B50
:10145000DC01CB0129E0B595A795979587952A954D
:10146000D1F703C08FEF9FEFDC01109290002AE0CC
:1014700020939100D0929900C092980080934302EB
:1014800090934402A0934502B0934602809171006C
:1014900082608093710002C04798D2CFDF91CF91D4
:1014A0001F910F91FF90EF90DF90CF900895809162
:1014B000380208950895089580E090E008950E940C
:1014C000571E0F931F93CF93DF931F92CDB7DEB7B5
:1014D00082E0898342E450E063EC70E180E80E949E
:1014E000F5080E940B13DC0112960D911C911397C5
:1014F0000115110569F0D801ED91FC910280F3818D
:10150000E02DBE016F5F7F4FC801099597FF07C0AF
:1015100089810F90DF91CF911F910F910895F8016C
:1015200000851185E5CF0E94D01290E008950F93B9
:101530001F93CF93DF931F92CDB7DEB78C01FC01D1
:101540008485958597FF0EC0CE0101960E94E11219
:10155000019719F4298130E002C02FEF3FEFF80125
:1015600035872487F801848595850F90DF91CF9189
:101570001F910F910895CF93DF931F92CDB7DEB7E0
:10158000FC018485958597FD05C02FEF3FEF3587DA
:1015900024870BC0CE0101960E94E112019719F435
:1015A000898190E002C08FEF9FEF0F90DF91CF9184
:1015B0000895CF93DF9300D000D0CDB7DEB761158B
:1015C00071058105910579F09B01AC0169833A832E
:1015D0004B835C830E94691B29813A814B815C812A
:1015E0000E948D1B03C060E070E0CB010F900F9054
:1015F0000F900F90DF91CF9108951F920F920FB629
:101600000F9211248F939F938091E1009091E100BC
:10161000937F9093E10083FF0FC01092E90091E067
:101620009093EB001092EC0092E39093ED001092F7
:10163000520298E09093F00082FF20C093E09093D4
:10164000E9009091F200992319F09AE39093E80051
:1016500090915002992339F09091500291509093BB
:101660005002992389F190915102992339F0909178
:101670005102915090935102992341F184FF10C07F
:101680008091E2008E7E81608093E2008091E10093
:101690008F7E8093E1008091A5018E7E806111C0D4
:1016A00080FF16C08091E2008E7E80618093E20010
:1016B0008091E1008E7E8093E1008091A5018E7E75
:1016C00081608093A50104C05D9ACDCF289AD6CFC2
:1016D0009F918F910F900FBE0F901F9018951F92A2
:1016E0000F920FB60F921124CF92DF92EF92FF92DA
:1016F0000F931F932F933F934F935F936F937F931A
:101700008F939F93AF93BF93EF93FF93CF93DF9309
:10171000CDB7DEB76C97DEBFCDBF1092E9008091E8
:10172000E80083FFEDC168E0CE0145960E941C09E8
:1017300082EF8093E8008D8987FF05C09091E800D3
:1017400090FFFCCF03C09EEF9093E800982F907617
:1017500009F0C6C09E892F89188D91110CC0803860
:1017600029F48091A6018093F10002C01092F1004B
:101770001092F10048C1422F50E0512B913051F4AA
:10178000811141C14130510509F03DC18091A6014F
:101790008D7F0BC0933061F4811135C1413051050B
:1017A00009F031C18091A60182608093A6012BC10E
:1017B000953041F48091E80080FFFCCF20682093B1
:1017C000E30021C1963009F05FC0EB8CFC8C1092D5
:1017D000E90010924F0210924E02123091F51092D1
:1017E0004D0210924C020E94610A99E0BE016F5FA7
:1017F0007F4FDB01E92F1D92EA95E9F799831A8360
:1018000091E09E8390EA98879AEF998720914E0203
:1018100030914F02275F3F4F3C832B838D83109283
:10182000E90010924F0210924E02F0924D02E092A7
:101830004C0249E050E080E00E94F5080E94610AF5
:10184000E2C0F0924D02E0924C020E940B13DC01C8
:101850001296ED90FC901397E114F10409F4C0C0C6
:10186000D701ED91FC910480F581E02DBE016B5E06
:101870007F4FC7010995009719F00CF0C4C0C7C08D
:10188000F701E084F184E8CF973009F4C0C09830C4
:1018900021F481E08093F100B6C0993009F0B3C023
:1018A000837009F0B4C0E3E1F1E081E021E036E3C8
:1018B0009081992361F08093E9002093EB0091914E
:1018C0009093EC003093ED008F5F873089F78EE7BF
:1018D0008093EA001092EA008F898093520293C0AD
:1018E0008B8D9C8D1092E90010924F0210924E0247
:1018F00090934D0280934C02898D811156C08E8940
:101900009D89913A59F4813209F081C047E050E055
:1019100066E071E080E00E94F50875C0913209F040
:1019200076C0833289F4888D90E0982F88272F899C
:10193000822BA0E0B0E08093020190930301A0937A
:101940000401B09305015FC0803269F48091E80022
:1019500082FFFCCF67E086E091E00E941C098BEFDC
:101960008093E80006C0823209F04DC08F898093D1
:101970000D018091A401882319F0EEEFFAE002C076
:10198000E0E0F8E08091060190910701A091080144
:10199000B0910901803B9440A105B10509F07BC0DD
:1019A00080910D0180FF93C076C00E940B13DC0173
:1019B00012960D911C9113970115110541F1D80153
:1019C000ED91FC910190F081E02DBE016B5E7F4FA7
:1019D000C8010995811117C0F80100851185ECCF68
:1019E000113009F44EC0133091F48F89882309F423
:1019F00045C0823081F440E860E187E291E10E94D5
:101A0000551A882321F08EEF8093E80079C081E297
:101A10008093EB0075C0813029F440E86BE08BE1E6
:101A200091E1EDCF833099F70E940B13DC01129600
:101A3000ED90FC9013978E010F5F1F4F6801E1142A
:101A4000F10479F0D701ED91FC910680F781E02D4A
:101A5000B801C7010995080F111DF701E084F18451
:101A6000EECFD8011C92F60101900020E9F73197E2
:101A7000BF016C197D0940E0C601C1CF65E071E18D
:101A800002C069E071E16115710509F2FB01449141
:101A900050E080E840CF0FB6F894A89580916000A0
:101AA000886180936000109260000FBEA895EE3FA1
:101AB0002AE0F20739F08091FE0A9091FF0A9183A3
:101AC0008083A1CF1092FF0A1092FE0A9CCFEE3FB6
:101AD0008AE0F80731F0808191819093FF0A80932A
:101AE000FE0A87E797E7918380839BE088E10FB642
:101AF000F894A895809360000FBE9093600083CF08
:101B00006C960FB6F894DEBF0FBECDBFDF91CF91BC
:101B1000FF91EF91BF91AF919F918F917F916F91C5
:101B20005F914F913F912F911F910F91FF90EF90F7
:101B3000DF90CF900F900FBE0F901F9018953FB77A
:101B4000F8948091480290914902A0914A02B09184
:101B50004B0226B5A89B05C02F3F19F00196A11D89
:101B6000B11D3FBFBA2FA92F982F8827820F911D33
:101B7000A11DB11DBC01CD0142E0660F771F881F7A
:101B8000991F4A95D1F708958F929F92AF92BF9275
:101B9000CF92DF92EF92FF926B017C010E949F0D2A
:101BA0004B015C01C114D104E104F104F1F00E9485
:101BB0009F0DDC01CB0188199909AA09BB09883E50
:101BC0009340A105B10570F321E0C21AD108E108E4
:101BD000F10888EE880E83E0981EA11CB11CC11488
:101BE000D104E104F10419F7DDCFFF90EF90DF900D
:101BF000CF90BF90AF909F908F9008958F929F92BB
:101C0000AF92BF92CF92DF92EF92FF920F931F930A
:101C1000CF93DF935C016B017A0180910D018823E2
:101C200009F45BC080915202882309F456C0809168
:101C3000A50180FF05C08091E00082608093E000F4
:101C4000E70110E00AEF83E0882E9AE3992E2097AF
:101C5000D9F10E94D01281110AC0015009F43DC08F
:101C600061E070E080E090E00E94C40DF0CF282F8A
:101C700030E0C217D3070CF48C2F4FB7F894809242
:101C8000E9009091E80095FF1DC0282F30E0C21BAD
:101C9000D30BF601982F915020F081918093F100A1
:101CA000FACFC20ED31E112319F09092E80009C09A
:101CB0008091E80085FD06C09092E80011E0209731
:101CC00009F010E04FBFC3CF1111C3CF5D9884E678
:101CD000809350021E141F0444F081E090E0F5014F
:101CE0009383828380E090E001C0C701DF91CF91B0
:101CF0001F910F91FF90EF90DF90CF90BF90AF902A
:101D00009F908F9008951F920F920FB60F921124FB
:101D10002F933F938F939F93AF93BF938091A7018E
:101D20009091A801A091A901B091AA013091470218
:101D300023E0230F2D3720F40196A11DB11D05C00E
:101D400026E8230F0296A11DB11D20934702809320
:101D5000A7019093A801A093A901B093AA01809133
:101D6000480290914902A0914A02B0914B0201961B
:101D7000A11DB11D8093480290934902A0934A028D
:101D8000B0934B02BF91AF919F918F913F912F9153
:101D90000F900FBE0F901F9018951F920F920FB6C5
:101DA0000F9211242F933F934F935F936F937F93E1
:101DB0008F939F93AF93BF93EF93FF9380914302D1
:101DC00090914402A0914502B0914602892B8A2B42
:101DD0008B2B81F18091420281110BC098B180E47C
:101DE000892788B980914102882319F088B18058E9
:101DF00088B98091430290914402A0914502B0912C
:101E00004602181619061A061B06B4F480914302FE
:101E100090914402A0914502B09146020197A10918
:101E2000B1098093430290934402A0934502B0937A
:101E3000460202C00E94A909FF91EF91BF91AF91A4
:101E40009F918F917F916F915F914F913F912F91D2
:101E50000F900FBE0F901F9018959C01E1E7F0E0E6
:101E600090819D7F908381E08093400230933F0278
:101E700020933E0230933C0220933B020C94A9092C
:101E80002D9A0895BC0180E090E00C94C40D8FB1B0
:101E90002CB193B130E02095309520743327A901FF
:101EA00023E0559547952A95E1F7292F30E02095B5
:101EB0003095207133273595279535952795242B17
:101EC0008095807F822B089583B7817F83BF83B7FE
:101ED000816083BF889583B78E7F83BF08958EBD51
:101EE00000000DB407FEFDCF089582E090E00E944F
:101EF000771B882331F03E9A3F9A81E08093380225
:101F00000895109238023E983F9808956038710500
:101F1000D0F440345105B8F4EBEBFBE080E1849F52
:101F2000D001A0781124A60F4770E40FF11D849111
:101F3000AD5ABD4F222319F06C91862B03C08095BA
:101F40006C9186238C9308952F923F924F925F92CB
:101F50006F927F928F929F92AF92BF92CF92DF92B9
:101F6000EF92FF920F931F93CF93DF93CDB7DEB71E
:101F700029970FB6F894DEBF0FBECDBFFC016A30C3
:101F800069F4248D808D918D38E0239F800D911D03
:101F90001124918F808F178A168AAAC06D3009F498
:101FA000A7C099878887F48C338C228C608C718CC5
:101FB0000689178900381105C4F0A885B9855C9693
:101FC0002C915C97422F50E056968D919C9157979B
:101FD000B6E02B9F800D911D1124E885F985978B24
:101FE000868B258D21116EC083C0F0E46F167104BD
:101FF00024F7C80125E0F29E800D911D11241816CA
:102000001906DCF68F2D90E09C838B83C301A8E03A
:10201000FA9E800D911D11241816190674F6B5E06C
:102020006B9FB0011124FB01ED53F44FFA83E98358
:1020300030E08885998504969E838D83E981FA81B5
:10204000E490353009F4E12C430188E0482EE0FCAF
:1020500002C0532C01C0522C51100BC0321009C0C9
:10206000E6944A948B819C81880E991E4110EFCF93
:102070001BC068018C2D801B8F1590F754018A2D91
:1020800088198F1568F4252DA501B6018D819E81D3
:102090003F830E94860F9FEFA91AB90A3F81EFCFB5
:1020A000AFEFCA1ADA0AE6CF3F5FEB81FC810E0F71
:1020B0001F1F89819A8101969A838983363009F09E
:1020C000BDCF7BCF6AEF64039001659F300D112473
:1020D00020583F4F281739075CF4A885B985ED9142
:1020E000FC9111970190F081E02D6AE0CD010995F6
:1020F00081E090E029960FB6F894DEBF0FBECDBF09
:10210000DF91CF911F910F91FF90EF90DF90CF90D3
:10211000BF90AF909F908F907F906F905F904F9007
:102120003F902F900895009769F0FC0101900020E6
:10213000E9F73197AF01481B590BBC0185EA96E0DE
:102140000C94290980E090E0089580E0E3E5F2E056
:1021500081118FEF00248193819381938193039464
:10216000D1F70895809153028EBDE4E5F2E08191AC
:102170000DB407FEFDCF8EBD86E0E335F807B9F755
:102180000DB407FEFDCF08952F923F924F925F92BC
:102190006F927F928F929F92AF92BF92CF92DF9277
:1021A000EF92FF920F931F93CF93DF93CDB7DEB7DC
:1021B00028970FB6F894DEBF0FBECDBF5A01822E0E
:1021C000912C9C01280D391D37FDC4C08038910524
:1021D0000CF0C0C09B01200F311D37FDBBC0603427
:1021E00071050CF0B7C0AB0177FF04C04427552739
:1021F000461B570B477055279B0177FF02C0295F8D
:102200003F4FE3E035952795EA95E1F777FF08C062
:102210002150310968E070E0DB01A41BB50BAD0172
:10222000602F66956695669570E0077011F06F5F98
:102230007F4FDB01A20FB31FBA83A98339017694C4
:10224000762C662477946794680E791EE12CF12C25
:1022500000E010E02301B0E84B0E511C68E070E094
:10226000DB01A41BB50BBC83AB8369817A81261784
:10227000370709F46FC02830310509F46BC02F3FD0
:10228000BFEF3B070CF45BC0B201600F711FDB01B5
:10229000AD5ABD4FBE83AD83D801A60DB71DAD5A53
:1022A000BD4F6C0160E070E0681579050CF047C027
:1022B000E0E8CE16D10409F442C0D7FC34C02F3F69
:1022C000FFEF3F0709F442C0FB01EE0DFF1DEA0DD1
:1022D000FB1DE491042E01C0EE0F0A94EAF73C9036
:1022E000E329EC9341155105F1F027303105D9F080
:1022F000FB01EE0DFF1DEA0DFB1DE4912E2E312C8E
:10230000F1010B8002C0F595E7950A94E2F7F88792
:10231000EF83ED81FE813080EF81F885E3291F0195
:10232000ED81FE8120826F5F7F4FED81FE813196CE
:10233000FE83ED83FFEFCF1ADF0A1196B5CF2F5F33
:102340003F4F00581F4FE80CF91C8FCF4115510526
:1023500079F6E9CF28960FB6F894DEBF0FBECDBF51
:10236000DF91CF911F910F91FF90EF90DF90CF9071
:10237000BF90AF909F908F907F906F905F904F90A5
:102380003F902F9008952091AF06282329F4909133
:10239000AE06982381E009F480E008955F926F9281
:1023A0007F928F929F92AF92BF92CF92DF92EF92E5
:1023B000FF920F931F93CF93DF93EC018B017A0170
:1023C000A901461B570B57FF03C051954195510971
:1023D000C7018C1B9D0B97FF03C0919581959109B7
:1023E000552453948417950714F0512C0AC09E2D40
:1023F0008F2D7901292F382F9C2F8D2FE801092F40
:10240000182FEC16FD0654F4902F812F8901292FE7
:10241000382F9C2F8D2FE701E92EF82E37016C1AEB
:102420007D0A5901A01AB10AB7FE03C0B194A19464
:10243000B108630177FE03C08FEFC81AD80AD5949C
:10244000C7940217130714F08FEF01C081E0882EA4
:10245000880F9908EC16FD06B4F021E0552019F01C
:10246000AE01B80102C0A801BE0189EA96E00E944F
:10247000860FCA18DB08D7FE04C0080D191DC60C4C
:10248000D71C2196E7CFDF91CF911F910F91FF903D
:10249000EF90DF90CF90BF90AF909F908F907F9004
:1024A0006F905F9008958F929F92AF92BF92CF925C
:1024B000DF92EF92FF920F931F93CF93DF93CDB7ED
:1024C000DEB7A1970FB6F894DEBF0FBECDBF6C018B
:1024D000990FEE08FF08F7FE31C0E091A506F091D4
:1024E000A6060190F081E02D6DE285EA96E009955F
:1024F0008C0122273327A9012C193D094E095F09B8
:1025000019A2CE0181967C019AE0892E912CA12CF2
:10251000B12CCA01B901A50194010E94BF1B605DE5
:10252000F70162937F01211531054105510589F7B6
:10253000CF010E949310800F911F1DC0A70196012B
:1025400019A28E010F5D1F4F8AE0C82ED12CE12CFD
:10255000F12CCA01B901A70196010E94BF1B605D61
:10256000F80162938F01211531054105510589F765
:10257000CF010E949310A1960FB6F894DEBF0FBE54
:10258000CDBFDF91CF911F910F91FF90EF90DF9022
:10259000CF90BF90AF909F908F9008950C94931020
:1025A0002FB7F89483E08093E9009091E800892F99
:1025B000807295FF04C09091F20080E4891B2FBFC8
:1025C0000895FC0180915202811103C08FEF9FEFAB
:1025D00008959FB7F89482E08093E9002091F2007B
:1025E00030E01216130614F421E030E02115310515
:1025F00059F0289884E6809351028091F1008083FD
:102600008091F200882319F09FBFC90108958BE6DD
:102610008093E800F9CF8091C70681110DC082E058
:102620008093C30684E08093C4061092C60610927D
:10263000C50681E08093C70683EC96E00895789400
:1026400084B5826084BD84B5816084BD85B58260B7
:1026500085BD85B5816085BD80916E008160809368
:102660006E001092810080918100826080938100D1
:1026700080918100816080938100809180008160E1
:10268000809380008091910082608093910080917E
:10269000910081608093910080919000816080938F
:1026A00090008091C10084608093C1008091C1003E
:1026B00082608093C1008091C10081608093C100DD
:1026C0008091C30081608093C3008091C0008260CC
:1026D0008093C0008091C20081608093C20080918D
:1026E0007A00846080937A0080917A00826080937F
:1026F0007A0080917A00816080937A0080917A00DC
:10270000806880937A00109252021092A601109273
:10271000A5018091D70081608093D70080EA8093E3
:10272000D80089B5806189BD89B5826089BD09B449
:1027300000FEFDCF61E070E080E090E00E94C40DFB
:102740008091D8008F7C80618093D8008091E000D8
:10275000807F8093E0008091E1008E7E8093E10095
:102760008DE08093E200559A209AEEEFFFE7859185
:1027700094918B3F9C4D19F481E08093A40181ECEE
:1027800080937C0085B1806F85B9249884B1866E72
:1027900084B95E9A5F988AB1806D8AB9769A6E988C
:1027A00081B3806F81BB899880B38D7080BB80E5D9
:1027B0008CBD81E08DBD85E090E00E94420F5F9A64
:1027C00085E090E00E94420F5E985C98CAE7D1E0F5
:1027D0001C2F135FFE0184910E946F0F21961C1322
:1027E000F9CF5C9A81E88093640081E08093650072
:1027F000C0E0D4E080E00E946F0F2197D9F70E94DB
:10280000470F87FF1FC05C9885EA0E946F0F5C9A94
:102810002E982F982D988091640080628093640098
:102820000E94640FFDCF2D980E94470F8478843852
:1028300071F00E94470F8471843131F188EC90E08F
:102840000E94420F0E94470F82FDEDCF3AC00E94C6
:10285000400F88EC90E00E94420F2F9882E090E0B9
:102860000E94771B8F3F29F06FEF82E090E00E947B
:102870007F1B84EF91E00E94420F2F9A0E94470F26
:1028800084788438D9F3D5CF0E94400F88EC90E04B
:102890000E94420F2E9882E090E00E94771B8823CE
:1028A00029F060E082E090E00E947F1B84EF91E0DD
:1028B0000E94420F2E9A0E94470F84718431D9F3EF
:1028C000BDCF0E94400F0E94750F2E98CEEEDFEF15
:1028D0000E94470F86FF04C02E9A2F9A2D9A39C066
:1028E000CC3F2FEFD20719F42E9A2F9805C0C8318C
:1028F000D10511F42F9A2D980E94A51000E128E52A
:102900004AEC50E0BE0184E190E00E94C4100E94B5
:10291000B2108BE190E00E94420FC03F4FEFD4070E
:1029200021F48AEF90E00E94420F2196C931D1052F
:1029300079F68CEB92E00E94420F0E94400FE091EA
:10294000A906F091AA060190F081E02D89EA96E0AF
:10295000099582E390E00E94420F0E94470F811187
:10296000F8CF8FEF9FEF9093600680935F06809182
:1029700064008E7F8093640080917A0080648093ED
:102980007A0080917A0086FDFCCFC0917800D091CA
:1029900079000E949F0D8E0120E030E09801112700
:1029A0000027600F711F821F931F6115710581053C
:1029B000910511F00E946E1B8091640081608093EC
:1029C000640080E18093B0060E94750F0E94A510FC
:1029D0001092BE061092BD061092BC061092BB0665
:1029E00056E2252E312CC8E2D0E06CE1C62ED12C67
:1029F0002FB7F8948091A7019091A801A091A90107
:102A0000B091AA012FBF4091B5065091B6066091D2
:102A1000B7067091B8062091B906222341F02091A3
:102A2000B106821B8093BA061092B906F2C48417CD
:102A30009507A607B70738F4481B423008F4E9C4E5
:102A40000E94640FE6C421E02093B9068093B1068A
:102A50009093B206A093B306B093B4062091B0064B
:102A6000820F911DA11DB11D8093B5069093B606EE
:102A7000A093B706B093B8068091AC069091AD06CE
:102A800001969093AD068093AC068091AE0680933C
:102A9000AF060E94470F8093AE060E94A5101092C9
:102AA000BE061092BD061092BC061092BB06809125
:102AB0003602909137028230910509F455C43CF4F6
:102AC000009709F44EC0019709F477C098C4833089
:102AD000910509F47FC4049709F091C4D093BC0612
:102AE000C093BB0684E190E09093BE068093BD0640
:102AF0008AE691E00E94CE12D093BC06C093BB063A
:102B0000D092BE06C092BD0683E791E00E94CE122D
:102B1000D093BC06C093BB06A4E2B0E0B093BE065F
:102B2000A093BD068EE791E00E94CE12D093BC0622
:102B3000C093BB06ECE2F0E0F093BE06E093BD0666
:102B400086E891E00E94CE121092BC061092BB065D
:102B500084E390E09093BE068093BD068DE891E0FB
:102B60002DC400E420E84BEB57E060E070E080E02B
:102B700090E00E94C41088E00E94C3118823A1F055
:102B800081E090E0909337028093360210923502F4
:102B90001092340282E390E090930101809300014F
:102BA0008DEA97E00E942D0F84E00E94C3118823D4
:102BB00009F425C484E090E0D2C300E420E84BEAA5
:102BC00053E060E070E080E090E00E94C4108090EC
:102BD000300290903102A0903202B0903302C501D1
:102BE000B4010E94621C20E030E040E051E40E9409
:102BF000931D20E030E040EA51E40E94F11B0E9466
:102C0000671C2B013C0170932F0260932E02C501BB
:102C1000B4010E94001E20E030E040E051E40E9438
:102C2000931D20E030E048ED51E40E94F11B0E942A
:102C3000671C70932D0260932C029B01A2016BE133
:102C400070E084E190E00E94CE1180E80E94C31100
:102C5000811104C00E94470F85FF1AC026E636E6A0
:102C600046E85FEBC501B4010E948E1D181684F47E
:102C70002AE939E949E15EE3C501B4010E94F01B8C
:102C8000609330027093310280933202909333024A
:102C900080E10E94C311811104C00E94470F86FF8A
:102CA00022C08090300290903102A0903202B09009
:102CB000330226E636E646E85FE3C501B4010E942A
:102CC0005D1C87FF10C02AE939E949E15EE3C501CF
:102CD000B4010E94F11B6093300270933102809323
:102CE00032029093330284E00E94C311882309F4D6
:102CF0004BC085EA93E00E942D0FE5EEF1E080E005
:102D000090E0208121113AC025E0289F8001299F71
:102D1000100D11240F511E4F80912E02D8018C935B
:102D200080912C0211968C93809030029090310209
:102D3000A0903202B0903302C501B4010E94621C1F
:102D400020E030E040EA50E40E94931D0E946E1C97
:102D5000F8016283C501B4010E94001E20E030E04A
:102D600040EE50E40E94931D0E94671CD801139608
:102D70006C93139781E014968C9306C00196359658
:102D80008F30910509F0BDCF8091340290913502CA
:102D90008B3B924088F58091D701882339F0809150
:102DA000E001811129C001E010E002C000E010E064
:102DB00066E470E080E090E00E94D90A29E0209F5C
:102DC000A001219F500D1124FA01E153FE4FAB01E8
:102DD000BC014E575F4F6F4F7F4F5183408384E25A
:102DE000828380E090E0A0E8BFEB83839483A58397
:102DF000B683178281E080878091340290913502FA
:102E00008258910989339240D0F58091CE01811189
:102E100036C066E470E080E090E00E94D90ADC01F0
:102E2000CB018C549F4FAF4FBF4F9093C7018093FE
:102E3000C6016CE070E080E090E00E94D90ADC01FD
:102E4000CB010C96A11DB11D8093C80161E070E01B
:102E500080E090E00E94D90A6250710981099109CD
:102E60000E949F1C6093C9017093CA018093CB019B
:102E70009093CC011092CD0181E08093CE0180919E
:102E80003402909135028C3B92400CF444C0809106
:102E9000B301882359F08091BC01882351F08091BF
:102EA000C501811138C002E010E005C000E010E06B
:102EB00002C001E010E066E470E080E090E00E9473
:102EC000D90A29E0209FA001219F500D11248A01D9
:102ED00005551E4FAB01BC014C545F4F6F4F7F4FE8
:102EE000F8015183408364E170E080E090E00E944B
:102EF000D90ADC01CB010A96A11DB11DF80182831C
:102F000080E090E0A0E0B0EC83839483A583B68357
:102F1000178281E0808700E010E0F801EF51FE4F5A
:102F20008481882349F0418150E0608170E021E094
:102F300089EA96E00E94860F0B5F1F4F0B34110544
:102F400061F7E12CF12CF701E153FE4F80858823D6
:102F500051F0628170E000E120E145E853E08081BA
:102F600091810E94C410F9E0EF0EF11C22E1E216FB
:102F7000F10449F78091CE01882369F06091C8017E
:102F800070E004E124E149E453E08091C6019091AE
:102F9000C7010E94C410E12CF12CF701E555FE4F4A
:102FA0008085882351F0628170E004E124E14DE0E6
:102FB00053E0808191810E94C41049E0E40EF11C2D
:102FC0008BE1E816F10449F70FEC11E047EDE42E30
:102FD00041E0F42ED7018C91882381F1F8016081C2
:102FE000718180E090E00E949D1CD80113962D9184
:102FF0003D914D915C9116970E94F11B0E946E1CB1
:10300000F80171836083F701319730813597208112
:10301000230F20836231710510F0213478F0D7013D
:103020001C928091000190910101029790930101FF
:103030008093000183E093E00E942D0FB9E0EB0E36
:10304000F11C075F1F4FE1E0013E1E0719F680915A
:10305000CE01882399F16091C6017091C70180E08B
:1030600090E00E949D1C2091C9013091CA014091BD
:10307000CB015091CC010E94F11B0E946E1C7093F9
:10308000C7016093C6013091CD012091C801230F83
:103090002093C8016231710510F0213478F010924C
:1030A000CE0180910001909101010A979093010156
:1030B0008093000183E093E00E942D0F0BEA11E062
:1030C00033EBE32E31E0F32ED7018C91882381F18D
:1030D000F8016081718180E090E00E949D1CD80120
:1030E00013962D913D914D915C9116970E94F11B85
:1030F0000E946E1CF80171836083F7013197308163
:1031000035972081230F20836231710510F021341F
:1031100078F0D7011C9280910001909101014E97A7
:10312000909301018093000183E093E00E942D0FB2
:10313000B9E0EB0EF11C075F1F4FE1E0063C1E07F4
:1031400019F605EE11E021EEA22E21E0B22ED801F3
:103150008C91882309F49AC0F80132979081F50187
:103160008081980F9083F801319720813297808178
:10317000820F8083913810F4813418F0D8011C92AA
:1031800085C097EDE92E91E0F92E812C912CF40168
:10319000EF51FE4F60812181D7018C918823C9F0C6
:1031A00070E018974D915C91119712968C9164176D
:1031B00075077CF0425F5F4F6417750754F430E089
:1031C00090E0281739072CF04296281739070CF49D
:1031D00028C1B5E08B0E911CE9E0EE0EF11CFAE07F
:1031E0008F169104A1F66091E1012091E201809196
:1031F000CE018823C9F070E04091C6015091C7010B
:103200008091C801641775077CF04C5E5F4F6417AE
:10321000750754F430E090E0281739072CF04296F7
:10322000281739070CF40EC183EBE82E81E0F82E45
:10323000812C912CF401EF51FE4F60812181D70147
:103240008C918823C9F070E018974D915C9111978B
:1032500012968C91641775077CF04C5E5F4F641773
:10326000750754F430E090E0281739072CF04296A7
:10327000281739070CF4F8C0B5E08B0E911CE9E073
:10328000EE0EF11CFFE08F169104A1F60B5F1F4FAD
:1032900025E0A20EB11C4CE2A41642E0B40609F0EF
:1032A00056CF88E00E94C311882399F080913402A0
:1032B000909135028233910564F0209100013091A4
:1032C0000101223331052CF48B3BA2E09A070CF468
:1032D000DCC01092BC061092BB061092BE06109283
:1032E000BD0680913402909135020E94531282E310
:1032F00090E09093BC068093BB061092BE0610929D
:10330000BD068FE391E00E94CE1200910001109162
:103310000101A801405C5F4F23E030E063E070E012
:1033200080E490E00E94CE111016110654F08DE258
:1033300092E00E942D0F82E090E0909337028093FC
:1033400036028091340290913502883E93400CF40D
:1033500056C087E891E00E942D0F83E090E09093A3
:103360003702809336024BC0D093BC06C093BB0695
:10337000D092BE06C092BD0683E491E00E94CE12B8
:10338000D093BC06C093BB063092BE062092BD0609
:103390008DE491E00E94CE1280913402909135022A
:1033A0000E945312D093BC06C093BB06E0E3F0E04A
:1033B000F093BE06E093BD0684E591E00E94CE1234
:1033C00088E00E94C3118823D1F010923702109236
:1033D000360215C0D093BC06C093BB06D092BE0681
:1033E000C092BD068FE591E00E94CE12D093BC063C
:1033F000C093BB06D093BE06C093BD06DDCF40E0B0
:1034000054E063E572E083E596E00E94FE0D0E94C1
:10341000B21080E090E0892B09F4EACA0E94000013
:10342000E7CAD7011C921482809134029091350230
:103430000296909335028093340289EF92E00E94C5
:103440002D0FC7CE1092CE011092E501809134026B
:10345000909135020A96909335028093340289EF59
:1034600092E00E942D0FE0CED7011C921482809131
:103470003402909135020A9690933502809334027B
:1034800089EF92E00E942D0FF7CE265F3F4F3093D9
:10349000010120930001C29790933502809334027A
:1034A0008BEE92E00E942D0F14CFCF92DF92EF921D
:1034B000FF920F931F93CF93DF931F92CDB7DEB789
:1034C000182F062FE42E862F880F8E5F99830E9477
:1034D000C70883E00E94C708F12EC12E9981D92E1A
:1034E0008C2D8F19801798F4F601E7FE02C08491A5
:1034F00001C080810E94C708182F80E00E94C70881
:103500008123FFEFCF1ADF0A8111EACF01C081E0EA
:103510000F90DF91CF911F910F91FF90EF90DF906F
:10352000CF9008950F931F93CF93DF938C0181E089
:1035300090E00E94771B80FF31C08AE090E00E94FB
:10354000771B9FEF980F9E3F48F522E330E0D801AC
:1035500057963C932E93569728E330E059963C9328
:103560002E935897CBE0D0E0D801ED91FC910190DB
:10357000F081E02D682FC8010995CE010E94771BCC
:103580002196C131D10581F70E94B21088EE93E0F7
:10359000DF91CF911F910F910C94420FDF91CF914A
:1035A0001F910F91089504970C94921AE3E5F6E0A9
:1035B0001382128288EE93E0A0E0B0E084839583CA
:1035C000A683B7838DE191E0918380838FEF9FEF96
:1035D00095878487E5EAF6E01382128211861286C7
:1035E00020E1238790878783108A118A128A138AA1
:1035F000148A8FE291E0918380838DE391E095833B
:103600008483178A168A118E108E81E0828F138E22
:10361000848F158E87E59AE09093A4068093A30685
:1036200080E090E89093DC068093DB0646983E9A13
:1036300047983F9A08958F929F92AF92BF92CF92F0
:10364000DF92EF92FF92CF93DF93EC016881798153
:103650008A819B81611571058105910521F464E2E0
:1036600079ED8BE597E02DE133EF41E050E00E94EA
:103670008D1B49015A019B01AC01A7EAB1E40E94EC
:10368000AC1B6B017C01ACEEB4EFA50194010E9470
:10369000BA1BDC01CB018C0D9D1DAE1DBF1DB7FFFC
:1036A00003C00197A109B04888839983AA83BB838B
:1036B000BC01CD019F77DF91CF91FF90EF90DF901C
:1036C000CF90BF90AF909F908F9008950E941B1B4A
:1036D00008958EE091E00E941B1B089560930E01F7
:1036E00070930F0180931001909311010895F9993F
:1036F000FECF92BD81BDF89A992780B50895262FF7
:10370000F999FECF1FBA92BD81BD20BD0FB6F894C6
:10371000FA9AF99A0FBE01960895052E97FB1EF4AA
:1037200000940E94A41B57FD07D00E94BF1B07FCFA
:1037300003D04EF40C94A41B5095409530952195E0
:103740003F4F4F4F5F4F08959095809570956195CD
:103750007F4F8F4F9F4F08950E94E11BA59F900DB3
:10376000B49F900DA49F800D911D11240895B7FF63
:103770000C94AC1B0E94AC1B821B930B0895A1E21E
:103780001A2EAA1BBB1BFD010DC0AA1FBB1FEE1FDB
:10379000FF1FA217B307E407F50720F0A21BB30B26
:1037A000E40BF50B661F771F881F991F1A9469F7A2
:1037B00060957095809590959B01AC01BD01CF01FE
:1037C0000895A29FB001B39FC001A39F700D811DFA
:1037D0001124911DB29F700D811D1124911D08951A
:1037E0005058BB27AA270E94081C0C94401D0E9419
:1037F000071D38F00E940E1D20F039F49F3F19F488
:1038000026F40C94041D0EF4E095E7FB0C94FE1CCA
:10381000E92F0E94651D58F3BA17620773078407E2
:10382000950720F079F4A6F50C94871D0EF4E09529
:103830000B2EBA2FA02D0B01B90190010C01CA016A
:10384000A0011124FF27591B99F0593F50F4503E15
:1038500068F11A16F040A22F232F342F4427585F07
:10386000F3CF469537952795A795F0405395C9F71F
:103870007EF41F16BA0B620B730B840BBAF09150D7
:10388000A1F0FF0FBB1F661F771F881FC2F70EC076
:10389000BA0F621F731F841F48F487957795679549
:1038A000B795F7959E3F08F0B0CF9395880F08F035
:1038B0009927EE0F9795879508950E94DA1C08F4D2
:1038C00081E008950E94171DE3950C94511D0E94FC
:1038D0006E1C6894B1110C94881D08950E946D1D92
:1038E00088F09F5798F0B92F9927B751B0F0E1F0C1
:1038F000660F771F881F991F1AF0BA95C9F714C071
:10390000B13091F00E94871DB1E008950C94871D9D
:10391000672F782F8827B85F39F0B93FCCF38695A9
:1039200077956795B395D9F73EF490958095709506
:1039300061957F4F8F4F9F4F0895E89409C097FB83
:103940003EF490958095709561957F4F8F4F9F4F76
:103950009923A9F0F92F96E9BB279395F6958795BA
:1039600077956795B795F111F8CFFAF4BB0F11F47D
:1039700060FF1BC06F5F7F4F8F4F9F4F16C0882324
:1039800011F096E911C0772321F09EE8872F762F5A
:1039900005C0662371F096E8862F70E060E02AF09B
:1039A0009A95660F771F881FDAF7880F9695879587
:1039B00097F90895990F0008550FAA0BE0E8FEEF5C
:1039C00016161706E807F907C0F012161306E407E3
:1039D000F50798F0621B730B840B950B39F40A26DC
:1039E00061F0232B242B252B21F408950A2609F4BA
:1039F000A140A6958FEF811D811D089597F99F67BE
:103A000080E870E060E008959FEF80EC0895002466
:103A10000A941616170618060906089500240A9433
:103A2000121613061406050608950C94041D0E9430
:103A30006D1DD8F3E894E0E0BB279F57F0F02AED26
:103A40003FE049EC06C0EE0FBB0F661F771F881FD3
:103A500028F0B23A62077307840728F0B25A620B63
:103A6000730B840BE3959A9572F7803830F49A952E
:103A7000BB0F661F771F881FD2F790480C940A1E51
:103A8000092E0394000C11F4882352F0BB0F40F46C
:103A9000BF2B11F460FF04C06F5F7F4F8F4F9F4FAC
:103AA0000895EF93E0FF07C0A2EA2AED3FE049EC5A
:103AB0005FEB0E94081C0E94401D0F90039401FCC4
:103AC0009058ECEAF0E00C94161E57FD9058440F05
:103AD000551F59F05F3F71F04795880F97FB991F6D
:103AE00061F09F3F79F0879508951216130614062A
:103AF000551FF2CF4695F1DF08C0161617061806B7
:103B0000991FF1CF86957105610508940895E89491
:103B1000BB2766277727CB0197F908950E94DA1C07
:103B200008F48FEF08950E94A61D0C94401D0E947A
:103B3000071D38F00E940E1D20F0952311F00C9403
:103B4000FE1C0C94041D11240C94881D0E94651DFC
:103B500070F3959FC1F3950F50E0551F629FF001E0
:103B6000729FBB27F00DB11D639FAA27F00DB11DF9
:103B7000AA1F649F6627B00DA11D661F829F222782
:103B8000B00DA11D621F739FB00DA11D621F839F09
:103B9000A00D611D221F749F3327A00D611D231FDF
:103BA000849F600D211D822F762F6A2F11249F572D
:103BB00050409AF0F1F088234AF0EE0FFF1FBB1F30
:103BC000661F771F881F91505040A9F79E3F5105EF
:103BD00080F00C94FE1C0C94881D5F3FE4F3983E2B
:103BE000D4F3869577956795B795F795E7959F5F99
:103BF000C1F7FE2B880F911D9695879597F908952B
:103C00009F930E94171D0F9007FCEE5F0C94511DAF
:103C10009F3F31F0915020F4879577956795B79540
:103C2000880F911D9695879597F908959F938F9387
:103C30007F936F93FF93EF939B01AC010E94931DC1
:103C4000EF91FF910E942A1E2F913F914F915F911A
:103C50000C94931DDF93CF931F930F93FF92EF92DA
:103C6000DF927B018C01689406C0DA2EEF010E947E
:103C7000A61DFE01E894A591259135914591559198
:103C8000A6F3EF010E94081CFE019701A801DA9437
:103C900069F7DF90EF90FF900F911F91CF91DF9127
:103CA0000895EE0FFF1F0590F491E02D099481E037
:0C3CB00090E0F8940C945C1EF894FFCF98
:103CBC003200FFFFFFFF00E10000000000000100E8
:103CCC00000000C18081000000000000005409FECB
:103CDC000D930A6A097509BB0A970A00000000A433
:103CEC000F29095C0A5B0A921AFCFF0000D31A48E0
:103CFC00503A0047414D45204F5645520053636F93
:103D0C0072653A00505245535320274127200059E1
:103D1C004F552057494E21212100435245444954C7
:103D2C00533A005468616464657573534D00466979
:103D3C006C6D6F74650050686172617000546865D9
:103D4C002041726475626F7920436F6D6D756E6979
:043D5C007479000076
:00000001FF
